{
  "abi": [
    {
      "inputs": [
        {
          "internalType": "uint256[]",
          "name": "array",
          "type": "uint256[]"
        },
        {
          "internalType": "uint256",
          "name": "deleteIndex",
          "type": "uint256"
        }
      ],
      "name": "EfficientArrayChange",
      "outputs": [
        {
          "internalType": "uint256[]",
          "name": "",
          "type": "uint256[]"
        }
      ],
      "stateMutability": "pure",
      "type": "function"
    },
    {
      "inputs": [
        {
          "internalType": "uint256[]",
          "name": "array",
          "type": "uint256[]"
        }
      ],
      "name": "findLowest",
      "outputs": [
        {
          "internalType": "uint256",
          "name": "lowNum",
          "type": "uint256"
        },
        {
          "internalType": "uint256",
          "name": "index",
          "type": "uint256"
        }
      ],
      "stateMutability": "pure",
      "type": "function"
    },
    {
      "inputs": [
        {
          "internalType": "uint256[10]",
          "name": "unsortedArray",
          "type": "uint256[10]"
        }
      ],
      "name": "solution",
      "outputs": [
        {
          "internalType": "uint256[10]",
          "name": "sortedArray",
          "type": "uint256[10]"
        }
      ],
      "stateMutability": "pure",
      "type": "function"
    }
  ],
  "bytecode": {
    "object": "0x608060405234801561001057600080fd5b506105c1806100206000396000f3fe608060405234801561001057600080fd5b50600436106100415760003560e01c8063209b472e146100465780638b3b46c31461006f5780639690735014610097575b600080fd5b61005961005436600461034c565b6100b7565b6040516100669190610377565b60405180910390f35b61008261007d36600461045a565b61018f565b60408051928352602083019190915201610066565b6100aa6100a5366004610497565b61021c565b60405161006691906104dc565b6100bf61032d565b60408051600a8082526101608201909252600091602082016101408036833701905050905060005b600a811015610136578381600a811061010257610102610520565b602002013582828151811061011957610119610520565b60209081029190910101528061012e8161054c565b9150506100e7565b506000805b600a8110156101875761014d8361018f565b8583600a811061015f5761015f610520565b60200201919091529150610173838361021c565b92508061017f8161054c565b91505061013b565b505050919050565b600080826000815181106101a5576101a5610520565b60200260200101519150600090506000600190505b835181101561021657828482815181106101d6576101d6610520565b60200260200101511015610204578381815181106101f6576101f6610520565b602002602001015192508091505b8061020e8161054c565b9150506101ba565b50915091565b606060006001845161022e9190610565565b67ffffffffffffffff811115610246576102466103a9565b60405190808252806020026020018201604052801561026f578160200160208202803683370190505b50905060005b838110156102c65784818151811061028f5761028f610520565b60200260200101518282815181106102a9576102a9610520565b6020908102919091010152806102be8161054c565b915050610275565b505b805183101561032457836102dd846001610578565b815181106102ed576102ed610520565b602002602001015181848151811061030757610307610520565b60209081029190910101528261031c8161054c565b9350506102c8565b90505b92915050565b604051806101400160405280600a906020820280368337509192915050565b600061014080838503121561036057600080fd5b83818401111561036f57600080fd5b509092915050565b6101408101818360005b600a8110156103a0578151835260209283019290910190600101610381565b50505092915050565b634e487b7160e01b600052604160045260246000fd5b600082601f8301126103d057600080fd5b8135602067ffffffffffffffff808311156103ed576103ed6103a9565b8260051b604051601f19603f83011681018181108482111715610412576104126103a9565b60405293845285810183019383810192508785111561043057600080fd5b83870191505b8482101561044f57813583529183019190830190610436565b979650505050505050565b60006020828403121561046c57600080fd5b813567ffffffffffffffff81111561048357600080fd5b61048f848285016103bf565b949350505050565b600080604083850312156104aa57600080fd5b823567ffffffffffffffff8111156104c157600080fd5b6104cd858286016103bf565b95602094909401359450505050565b6020808252825182820181905260009190848201906040850190845b81811015610514578351835292840192918401916001016104f8565b50909695505050505050565b634e487b7160e01b600052603260045260246000fd5b634e487b7160e01b600052601160045260246000fd5b60006001820161055e5761055e610536565b5060010190565b8181038181111561032757610327610536565b808201808211156103275761032761053656fea264697066735822122029bfa41a3d1f9acb9c33e7b81ffa1b976bde7bbc9d599d5206b22718c937579464736f6c63430008110033",
    "linkReferences": {}
  },
  "methodIdentifiers": {
    "EfficientArrayChange(uint256[],uint256)": "96907350",
    "findLowest(uint256[])": "8b3b46c3",
    "solution(uint256[10])": "209b472e"
  },
  "id": 0
}