{
  "abi": [
    {
      "inputs": [
        {
          "internalType": "address[]",
          "name": "_admins",
          "type": "address[]"
        },
        {
          "internalType": "uint256",
          "name": "_totalSupply",
          "type": "uint256"
        }
      ],
      "stateMutability": "nonpayable",
      "type": "constructor"
    },
    {
      "anonymous": false,
      "inputs": [
        {
          "indexed": false,
          "internalType": "address",
          "name": "recipient",
          "type": "address"
        },
        {
          "indexed": false,
          "internalType": "uint256",
          "name": "amount",
          "type": "uint256"
        }
      ],
      "name": "Transfer",
      "type": "event"
    },
    {
      "inputs": [
        {
          "internalType": "address",
          "name": "_userAddrs",
          "type": "address"
        },
        {
          "internalType": "uint8",
          "name": "_tier",
          "type": "uint8"
        }
      ],
      "name": "addToWhitelist",
      "outputs": [],
      "stateMutability": "nonpayable",
      "type": "function"
    },
    {
      "inputs": [
        {
          "internalType": "uint256",
          "name": "",
          "type": "uint256"
        }
      ],
      "name": "administrators",
      "outputs": [
        {
          "internalType": "address",
          "name": "",
          "type": "address"
        }
      ],
      "stateMutability": "view",
      "type": "function"
    },
    {
      "inputs": [
        {
          "internalType": "address",
          "name": "_user",
          "type": "address"
        }
      ],
      "name": "balanceOf",
      "outputs": [
        {
          "internalType": "uint256",
          "name": "balance_",
          "type": "uint256"
        }
      ],
      "stateMutability": "view",
      "type": "function"
    },
    {
      "inputs": [
        {
          "internalType": "address",
          "name": "_user",
          "type": "address"
        }
      ],
      "name": "checkForAdmin",
      "outputs": [
        {
          "internalType": "bool",
          "name": "admin_",
          "type": "bool"
        }
      ],
      "stateMutability": "view",
      "type": "function"
    },
    {
      "inputs": [
        {
          "internalType": "address",
          "name": "_user",
          "type": "address"
        }
      ],
      "name": "getPayments",
      "outputs": [
        {
          "components": [
            {
              "internalType": "uint8",
              "name": "paymentType",
              "type": "uint8"
            },
            {
              "internalType": "uint256",
              "name": "paymentID",
              "type": "uint256"
            },
            {
              "internalType": "address",
              "name": "recipient",
              "type": "address"
            },
            {
              "internalType": "uint256",
              "name": "amount",
              "type": "uint256"
            }
          ],
          "internalType": "struct GasContract.Payment[]",
          "name": "payments_",
          "type": "tuple[]"
        }
      ],
      "stateMutability": "view",
      "type": "function"
    },
    {
      "inputs": [],
      "name": "getTradingMode",
      "outputs": [
        {
          "internalType": "bool",
          "name": "mode_",
          "type": "bool"
        }
      ],
      "stateMutability": "pure",
      "type": "function"
    },
    {
      "inputs": [],
      "name": "totalSupply",
      "outputs": [
        {
          "internalType": "uint256",
          "name": "",
          "type": "uint256"
        }
      ],
      "stateMutability": "view",
      "type": "function"
    },
    {
      "inputs": [
        {
          "internalType": "address",
          "name": "_recipient",
          "type": "address"
        },
        {
          "internalType": "uint256",
          "name": "_amount",
          "type": "uint256"
        },
        {
          "internalType": "string",
          "name": "_name",
          "type": "string"
        }
      ],
      "name": "transfer",
      "outputs": [
        {
          "internalType": "bool",
          "name": "status_",
          "type": "bool"
        }
      ],
      "stateMutability": "nonpayable",
      "type": "function"
    },
    {
      "inputs": [
        {
          "internalType": "address",
          "name": "_user",
          "type": "address"
        },
        {
          "internalType": "uint256",
          "name": "_ID",
          "type": "uint256"
        },
        {
          "internalType": "uint256",
          "name": "_amount",
          "type": "uint256"
        },
        {
          "internalType": "uint8",
          "name": "_type",
          "type": "uint8"
        }
      ],
      "name": "updatePayment",
      "outputs": [],
      "stateMutability": "nonpayable",
      "type": "function"
    },
    {
      "inputs": [
        {
          "internalType": "address",
          "name": "_recipient",
          "type": "address"
        },
        {
          "internalType": "uint256",
          "name": "_amount",
          "type": "uint256"
        },
        {
          "components": [
            {
              "internalType": "uint256",
              "name": "valueA",
              "type": "uint256"
            },
            {
              "internalType": "uint256",
              "name": "bigValue",
              "type": "uint256"
            },
            {
              "internalType": "uint256",
              "name": "valueB",
              "type": "uint256"
            }
          ],
          "internalType": "struct GasContract.ImportantStruct",
          "name": "_struct",
          "type": "tuple"
        }
      ],
      "name": "whiteTransfer",
      "outputs": [],
      "stateMutability": "nonpayable",
      "type": "function"
    },
    {
      "inputs": [
        {
          "internalType": "address",
          "name": "",
          "type": "address"
        }
      ],
      "name": "whitelist",
      "outputs": [
        {
          "internalType": "uint256",
          "name": "",
          "type": "uint256"
        }
      ],
      "stateMutability": "view",
      "type": "function"
    }
  ],
  "bytecode": {
    "object": "0x608060405260016000818155808255600255600c805460ff191690911790553480156200002b57600080fd5b5060405162000cde38038062000cde8339810160408190526200004e916200019b565b600380546001600160a01b03191633179055600181905560005b60058110156200015f5760006001600160a01b031683828151811062000092576200009262000275565b60200260200101516001600160a01b0316146200014a57828181518110620000be57620000be62000275565b602002602001015160078260058110620000dc57620000dc62000275565b0180546001600160a01b0319166001600160a01b03928316179055600354845191169084908390811062000114576200011462000275565b60200260200101516001600160a01b0316036200014a576001546003546001600160a01b03166000908152600460205260409020555b8062000156816200028b565b91505062000068565b505050620002b3565b634e487b7160e01b600052604160045260246000fd5b80516001600160a01b03811681146200019657600080fd5b919050565b60008060408385031215620001af57600080fd5b82516001600160401b0380821115620001c757600080fd5b818501915085601f830112620001dc57600080fd5b8151602082821115620001f357620001f362000168565b8160051b604051601f19603f830116810181811086821117156200021b576200021b62000168565b6040529283528183019350848101820192898411156200023a57600080fd5b948201945b83861015620002635762000253866200017e565b855294820194938201936200023f565b97909101519698969750505050505050565b634e487b7160e01b600052603260045260246000fd5b600060018201620002ac57634e487b7160e01b600052601160045260246000fd5b5060010190565b610a1b80620002c36000396000f3fe608060405234801561001057600080fd5b50600436106100a95760003560e01c806356b8c7241161007157806356b8c7241461012557806370a08231146101485780639a9f8383146101715780639b19251a14610178578063b52d15e214610198578063d89d1510146101ab57600080fd5b80630263b858146100ae57806318160ddd146100c35780631d6a1711146100df57806327df565a146100ff5780634e86eb1614610112575b600080fd5b6100c16100bc3660046106d1565b6101d6565b005b6100cc60015481565b6040519081526020015b60405180910390f35b6100f26100ed366004610704565b610249565b6040516100d69190610726565b6100c161010d3660046107dd565b6102ec565b6100c1610120366004610866565b610389565b6101386101333660046108ac565b6104c7565b60405190151581526020016100d6565b6100cc610156366004610704565b6001600160a01b031660009081526004602052604090205490565b6001610138565b6100cc610186366004610704565b60066020526000908152604090205481565b6101386101a6366004610704565b61062d565b6101be6101b936600461095b565b610684565b6040516001600160a01b0390911681526020016100d6565b6101df3361062d565b806101f457506003546001600160a01b031633145b6101fd57600080fd5b60038160ff16111561022757506001600160a01b0316600090815260066020526040902060039055565b6001600160a01b038216600090815260066020526040902060ff821690555050565b6001600160a01b0381166000908152600560209081526040808320805482518185028101850190935280835260609492939192909184015b828210156102e15760008481526020908190206040805160808101825260048602909201805460ff1683526001808201548486015260028201546001600160a01b0316928401929092526003015460608301529083529092019101610281565b505050509050919050565b33600081815260066020526040902054610306908461098a565b6001600160a01b0382166000908152600460205260408120805490919061032e90849061098a565b90915550506001600160a01b038116600090815260066020526040902054610356908461098a565b6001600160a01b0385166000908152600460205260408120805490919061037e9084906109a3565b909155505050505050565b6103923361062d565b806103a757506003546001600160a01b031633145b6103b057600080fd5b60005b6001600160a01b0385166000908152600560205260409020548110156104c0576001600160a01b0385166000908152600560205260409020805485919083908110610400576104006109b6565b906000526020600020906004020160010154036104ae576001600160a01b0385166000908152600560205260409020805483919083908110610444576104446109b6565b60009182526020808320600492909202909101805460ff191660ff94909416939093179092556001600160a01b0387168152600590915260409020805484919083908110610494576104946109b6565b9060005260206000209060040201600301819055506104c0565b806104b8816109cc565b9150506103b3565b5050505050565b336000908152600460205260408120805484919083906104e890849061098a565b90915550506001600160a01b038416600090815260046020526040812080548592906105159084906109a3565b9091555050604080516001600160a01b0386168152602081018590527f69ca02dd4edd7bf0a4abb9ed3b7af3f14778db5d61921c7dc7cd545266326de2910160405180910390a160056000336001600160a01b03166001600160a01b031681526020019081526020016000206040518060800160405280600260ff1681526020016002600081546105a5906109cc565b918290555081526001600160a01b039687166020808301919091526040918201969096528254600180820185556000948552938790208351600490920201805460ff191660ff90921691909117815595820151868401558101516002860180546001600160a01b03191691909716179095556060909401516003909301929092555090919050565b6000805b600581101561067e57826001600160a01b031660078260058110610657576106576109b6565b01546001600160a01b03160361066c57600191505b80610676816109cc565b915050610631565b50919050565b6007816005811061069457600080fd5b01546001600160a01b0316905081565b80356001600160a01b03811681146106bb57600080fd5b919050565b803560ff811681146106bb57600080fd5b600080604083850312156106e457600080fd5b6106ed836106a4565b91506106fb602084016106c0565b90509250929050565b60006020828403121561071657600080fd5b61071f826106a4565b9392505050565b602080825282518282018190526000919060409081850190868401855b82811015610789578151805160ff1685528681015187860152858101516001600160a01b0316868601526060908101519085015260809093019290850190600101610743565b5091979650505050505050565b634e487b7160e01b600052604160045260246000fd5b604051601f8201601f1916810167ffffffffffffffff811182821017156107d5576107d5610796565b604052919050565b600080600083850360a08112156107f357600080fd5b6107fc856106a4565b9350602085013592506060603f198201121561081757600080fd5b506040516060810181811067ffffffffffffffff8211171561083b5761083b610796565b8060405250604085013581526060850135602082015260808501356040820152809150509250925092565b6000806000806080858703121561087c57600080fd5b610885856106a4565b935060208501359250604085013591506108a1606086016106c0565b905092959194509250565b6000806000606084860312156108c157600080fd5b6108ca846106a4565b92506020808501359250604085013567ffffffffffffffff808211156108ef57600080fd5b818701915087601f83011261090357600080fd5b81358181111561091557610915610796565b610927601f8201601f191685016107ac565b9150808252888482850101111561093d57600080fd5b80848401858401376000848284010152508093505050509250925092565b60006020828403121561096d57600080fd5b5035919050565b634e487b7160e01b600052601160045260246000fd5b8181038181111561099d5761099d610974565b92915050565b8082018082111561099d5761099d610974565b634e487b7160e01b600052603260045260246000fd5b6000600182016109de576109de610974565b506001019056fea2646970667358221220c148124f350780b8216d489967744a3cb88495b268d419d024a8335431e754cb64736f6c63430008130033",
    "linkReferences": {}
  },
  "methodIdentifiers": {
    "addToWhitelist(address,uint8)": "0263b858",
    "administrators(uint256)": "d89d1510",
    "balanceOf(address)": "70a08231",
    "checkForAdmin(address)": "b52d15e2",
    "getPayments(address)": "1d6a1711",
    "getTradingMode()": "9a9f8383",
    "totalSupply()": "18160ddd",
    "transfer(address,uint256,string)": "56b8c724",
    "updatePayment(address,uint256,uint256,uint8)": "4e86eb16",
    "whiteTransfer(address,uint256,(uint256,uint256,uint256))": "27df565a",
    "whitelist(address)": "9b19251a"
  },
  "id": 16
}