{
  "abi": [
    {
      "inputs": [],
      "name": "secondYulFxn",
      "outputs": [
        {
          "internalType": "uint256",
          "name": "",
          "type": "uint256"
        }
      ],
      "stateMutability": "payable",
      "type": "function"
    }
  ],
  "bytecode": {
    "object": "0x6080604052348015600f57600080fd5b5060768061001e6000396000f3fe608060405260043610601c5760003560e01c806314dc160e146021575b600080fd5b60276039565b60405190815260200160405180910390f35b6000602034f3fea264697066735822122037014ec2c5a4ff507712a6b93f14d9b161edb66bf5465b6978bb5f8bc9f1adc164736f6c63430008130033",
    "linkReferences": {}
  },
  "methodIdentifiers": {
    "secondYulFxn()": "14dc160e"
  },
  "id": 20
}