{
  "abi": [
    {
      "inputs": [
        {
          "internalType": "uint256",
          "name": "amount",
          "type": "uint256"
        }
      ],
      "name": "secondYulFxn",
      "outputs": [
        {
          "internalType": "uint256",
          "name": "",
          "type": "uint256"
        }
      ],
      "stateMutability": "pure",
      "type": "function"
    }
  ],
  "bytecode": {
    "object": "0x6080604052348015600f57600080fd5b50609e8061001e6000396000f3fe6080604052348015600f57600080fd5b506004361060285760003560e01c8063143a044314602d575b600080fd5b603e60383660046050565b50600090565b60405190815260200160405180910390f35b600060208284031215606157600080fd5b503591905056fea26469706673582212200e702cbc99b0702f5830d359db482b9399947a486249a33930fe02d71fec9bbf64736f6c63430008110033",
    "linkReferences": {}
  },
  "methodIdentifiers": {
    "secondYulFxn(uint256)": "143a0443"
  },
  "id": 3
}