{
  "abi": [
    {
      "inputs": [
        {
          "internalType": "uint256[]",
          "name": "array",
          "type": "uint256[]"
        },
        {
          "internalType": "uint256",
          "name": "index",
          "type": "uint256"
        }
      ],
      "name": "removeNoOrder",
      "outputs": [],
      "stateMutability": "pure",
      "type": "function"
    }
  ],
  "bytecode": {
    "object": "0x608060405234801561001057600080fd5b506101d8806100206000396000f3fe608060405234801561001057600080fd5b506004361061002b5760003560e01c80633783b99714610030575b600080fd5b61004361003e3660046100a1565b610045565b005b81610051826001610165565b815181106100615761006161018c565b602002602001015182828151811061007b5761007b61018c565b6020026020010181815250505050565b634e487b7160e01b600052604160045260246000fd5b600080604083850312156100b457600080fd5b823567ffffffffffffffff808211156100cc57600080fd5b818501915085601f8301126100e057600080fd5b81356020828211156100f4576100f461008b565b8160051b604051601f19603f830116810181811086821117156101195761011961008b565b60405292835281830193508481018201928984111561013757600080fd5b948201945b838610156101555785358552948201949382019361013c565b9997909101359750505050505050565b8082018082111561018657634e487b7160e01b600052601160045260246000fd5b92915050565b634e487b7160e01b600052603260045260246000fdfea2646970667358221220feaeec162bb57608fe954ca45fa2516f17538d011e5e7fd0f14222555b4a5cc064736f6c63430008110033",
    "linkReferences": {}
  },
  "methodIdentifiers": {
    "removeNoOrder(uint256[],uint256)": "3783b997"
  },
  "id": 0
}