{
  "abi": [
    {
      "anonymous": false,
      "inputs": [
        {
          "indexed": true,
          "internalType": "address",
          "name": "receiver",
          "type": "address"
        },
        {
          "indexed": true,
          "internalType": "uint256",
          "name": "amount",
          "type": "uint256"
        }
      ],
      "name": "TransferOccurred",
      "type": "event"
    },
    {
      "inputs": [
        {
          "internalType": "bytes",
          "name": "data",
          "type": "bytes"
        }
      ],
      "name": "checkCall",
      "outputs": [],
      "stateMutability": "nonpayable",
      "type": "function"
    },
    {
      "inputs": [
        {
          "internalType": "bytes",
          "name": "data",
          "type": "bytes"
        },
        {
          "internalType": "function (address,uint256) external returns (bool)",
          "name": "test",
          "type": "function"
        }
      ],
      "name": "query",
      "outputs": [],
      "stateMutability": "nonpayable",
      "type": "function"
    }
  ],
  "bytecode": {
    "object": "0x608060405234801561001057600080fd5b506104ac806100206000396000f3fe608060405234801561001057600080fd5b50600436106100365760003560e01c806380f394b81461003b578063d72d677014610050575b600080fd5b61004e610049366004610150565b610063565b005b61004e61005e36600461020c565b610110565b60008080610073848601866102d3565b9194509250905063a9059cbb60e01b6001600160e01b03198416146100d35760405162461bcd60e51b81526020600482015260126024820152712737ba1022a9219918102a3930b739b332b960711b604482015260640160405180910390fd5b60405181906001600160a01b038416907f3e687b63036e1838e391b63e5800377a2e8667d997c98b44c5b3257400e8b8fe90600090a35050505050565b63a9059cbb5180820361013d577114dd5c1c1bdcd959081d1bc814995d995c9d60721b5160408181528190fd5b50600061014a84826103b6565b50505050565b6000806020838503121561016357600080fd5b823567ffffffffffffffff8082111561017b57600080fd5b818501915085601f83011261018f57600080fd5b81358181111561019e57600080fd5b8660208285010111156101b057600080fd5b60209290920196919550909350505050565b634e487b7160e01b600052604160045260246000fd5b600080823567ffffffffffffffff19811681146101f457600080fd5b8060601c925063ffffffff8160401c16915050915091565b60008060006040848603121561022157600080fd5b833567ffffffffffffffff8082111561023957600080fd5b818601915086601f83011261024d57600080fd5b81358181111561025f5761025f6101c2565b604051601f8201601f19908116603f01168101908382118183101715610287576102876101c2565b816040528281528960208487010111156102a057600080fd5b8260208601602083013760006020848301015280975050505050506102c7602085016101d8565b93969095509293505050565b6000806000606084860312156102e857600080fd5b83356001600160e01b03198116811461030057600080fd5b925060208401356001600160a01b038116811461031c57600080fd5b929592945050506040919091013590565b600181811c9082168061034157607f821691505b60208210810361036157634e487b7160e01b600052602260045260246000fd5b50919050565b601f8211156103b157600081815260208120601f850160051c8101602086101561038e5750805b601f850160051c820191505b818110156103ad5782815560010161039a565b5050505b505050565b815167ffffffffffffffff8111156103d0576103d06101c2565b6103e4816103de845461032d565b84610367565b602080601f83116001811461041957600084156104015750858301515b600019600386901b1c1916600185901b1785556103ad565b600085815260208120601f198616915b8281101561044857888601518255948401946001909101908401610429565b50858210156104665787850151600019600388901b60f8161c191681555b5050505050600190811b0190555056fea2646970667358221220d1387f76155e74cfc605c562b18909d51bb13aa95a7317f5b977c5b06982237264736f6c63430008130033",
    "linkReferences": {}
  },
  "methodIdentifiers": {
    "checkCall(bytes)": "80f394b8",
    "query(bytes,function)": "d72d6770"
  },
  "id": 21
}