{
  "abi": [
    {
      "inputs": [
        {
          "internalType": "bytes",
          "name": "data",
          "type": "bytes"
        }
      ],
      "name": "checkCall",
      "outputs": [],
      "stateMutability": "nonpayable",
      "type": "function"
    },
    {
      "inputs": [
        {
          "internalType": "bytes",
          "name": "data",
          "type": "bytes"
        },
        {
          "internalType": "function (uint256) external",
          "name": "test",
          "type": "function"
        }
      ],
      "name": "query",
      "outputs": [],
      "stateMutability": "pure",
      "type": "function"
    }
  ],
  "bytecode": {
    "object": "0x608060405234801561001057600080fd5b5061022f806100206000396000f3fe608060405234801561001057600080fd5b50600436106100365760003560e01c806380f394b81461003b578063d72d67701461004f575b600080fd5b61004d610049366004610076565b5050565b005b61004d61005d366004610132565b63a9059cbb81036100715760405160208082fd5b505050565b6000806020838503121561008957600080fd5b823567ffffffffffffffff808211156100a157600080fd5b818501915085601f8301126100b557600080fd5b8135818111156100c457600080fd5b8660208285010111156100d657600080fd5b60209290920196919550909350505050565b634e487b7160e01b600052604160045260246000fd5b600080823567ffffffffffffffff198116811461011a57600080fd5b8060601c925063ffffffff8160401c16915050915091565b60008060006040848603121561014757600080fd5b833567ffffffffffffffff8082111561015f57600080fd5b818601915086601f83011261017357600080fd5b813581811115610185576101856100e8565b604051601f8201601f19908116603f011681019083821181831017156101ad576101ad6100e8565b816040528281528960208487010111156101c657600080fd5b8260208601602083013760006020848301015280975050505050506101ed602085016100fe565b9396909550929350505056fea26469706673582212202e73d9b3f669d4285de4d0f136af1fa0a9ffe70420595791382abeff0e59d6ed64736f6c63430008110033",
    "linkReferences": {}
  },
  "methodIdentifiers": {
    "checkCall(bytes)": "80f394b8",
    "query(bytes,function)": "d72d6770"
  },
  "id": 0
}