{
  "abi": [
    {
      "inputs": [
        {
          "internalType": "bytes",
          "name": "data",
          "type": "bytes"
        },
        {
          "internalType": "function (uint256) external",
          "name": "test",
          "type": "function"
        }
      ],
      "name": "query",
      "outputs": [],
      "stateMutability": "pure",
      "type": "function"
    }
  ],
  "bytecode": {
    "object": "0x608060405234801561001057600080fd5b506101a5806100206000396000f3fe608060405234801561001057600080fd5b506004361061002b5760003560e01c8063d72d677014610030575b600080fd5b61004361003e3660046100a8565b610045565b005b63a9059cbb81036100595760405160208082fd5b505050565b634e487b7160e01b600052604160045260246000fd5b600080823567ffffffffffffffff198116811461009057600080fd5b8060601c925063ffffffff8160401c16915050915091565b6000806000604084860312156100bd57600080fd5b833567ffffffffffffffff808211156100d557600080fd5b818601915086601f8301126100e957600080fd5b8135818111156100fb576100fb61005e565b604051601f8201601f19908116603f011681019083821181831017156101235761012361005e565b8160405282815289602084870101111561013c57600080fd5b82602086016020830137600060208483010152809750505050505061016360208501610074565b9396909550929350505056fea26469706673582212208f166aa16ab00c280698a07e9caadfb2e857d693d82fed2146d461df695cfe1164736f6c63430008110033",
    "linkReferences": {}
  },
  "methodIdentifiers": {
    "query(bytes,function)": "d72d6770"
  },
  "id": 0
}