{
  "abi": [
    {
      "inputs": [],
      "name": "firstYulFxn",
      "outputs": [
        {
          "internalType": "uint256",
          "name": "",
          "type": "uint256"
        }
      ],
      "stateMutability": "pure",
      "type": "function"
    }
  ],
  "bytecode": {
    "object": "0x6080604052348015600f57600080fd5b5060888061001e6000396000f3fe6080604052348015600f57600080fd5b506004361060285760003560e01c80633115446014602d575b600080fd5b60336045565b60405190815260200160405180910390f35b6000600f60405260206040f3fea26469706673582212205adad8bd94542a5c6bb7c8f35be06cf2603c9488719a35ee7d6ca3030dbee6b264736f6c63430008130033",
    "linkReferences": {}
  },
  "methodIdentifiers": {
    "firstYulFxn()": "31154460"
  },
  "id": 19
}