{
  "abi": [
    {
      "inputs": [],
      "name": "firstYulFxn",
      "outputs": [
        {
          "internalType": "uint256",
          "name": "",
          "type": "uint256"
        }
      ],
      "stateMutability": "pure",
      "type": "function"
    }
  ],
  "bytecode": {
    "object": "0x6080604052348015600f57600080fd5b5060888061001e6000396000f3fe6080604052348015600f57600080fd5b506004361060285760003560e01c80633115446014602d575b600080fd5b60336045565b60405190815260200160405180910390f35b6000600f60405260206040f3fea26469706673582212203b64acd4d58fd67c729ed8b9cd4d5d852a0ca408d2cd2069bc296e059fda2e4a64736f6c63430008110033",
    "linkReferences": {}
  },
  "methodIdentifiers": {
    "firstYulFxn()": "31154460"
  },
  "id": 2
}