{
  "abi": [
    {
      "inputs": [
        {
          "internalType": "function (function (function (function () pure external) pure external) pure external) pure external",
          "name": "",
          "type": "function"
        }
      ],
      "name": "isValid",
      "outputs": [],
      "stateMutability": "pure",
      "type": "function"
    }
  ],
  "bytecode": {
    "object": "0x6080604052348015600f57600080fd5b5060b88061001e6000396000f3fe6080604052348015600f57600080fd5b506004361060285760003560e01c8063fc46244414602d575b600080fd5b603c6038366004603e565b5050565b005b60008060208385031215605057600080fd5b823567ffffffffffffffff1981168114606857600080fd5b8060601c925063ffffffff8160401c16915050925092905056fea2646970667358221220962e72879e6128e885a5a2824ef2e2fc13cc8625f8ee9656df48d6199f67fc8364736f6c63430008110033",
    "linkReferences": {}
  },
  "methodIdentifiers": {
    "isValid(function)": "fc462444"
  },
  "id": 0
}