{
  "abi": [
    {
      "inputs": [
        {
          "internalType": "function (function (function (function () pure external) pure external) pure external) pure external",
          "name": "",
          "type": "function"
        }
      ],
      "name": "isValid",
      "outputs": [],
      "stateMutability": "pure",
      "type": "function"
    }
  ],
  "bytecode": {
    "object": "0x6080604052348015600f57600080fd5b5060b88061001e6000396000f3fe6080604052348015600f57600080fd5b506004361060285760003560e01c8063fc46244414602d575b600080fd5b603c6038366004603e565b5050565b005b60008060208385031215605057600080fd5b823567ffffffffffffffff1981168114606857600080fd5b8060601c925063ffffffff8160401c16915050925092905056fea264697066735822122057d5613e66b2b104b55f3ad12660db231a414fc6ffce289ff571b52596e096e664736f6c63430008130033",
    "linkReferences": {}
  },
  "methodIdentifiers": {
    "isValid(function)": "fc462444"
  },
  "id": 18
}